:03000000020003F8
:0C000300787FE4F6D8FD75812002004AE9
:07017800010EFE0208006405
:10016700AE071FEE600A7E0C7DA9DDFEDEFC80F087
:010177002265
:10008F00E4FFC2B0D2B1D2B2D2B320B4010F20B5C7
:10009F00027F0220C2027F0320C4027F04D2B0C2BB
:1000AF00B1D2B2D2B320B4027F0520B5027F0620B1
:1000BF00C2027F0720C4027F08D2B0D2B1C2B2D22F
:1000CF00B320B4027F0920B5027F0A20C2027F0B42
:1000DF0020C4027F0CD2B0D2B1D2B2C2B320B402CC
:1000EF007F0D20B5027F0E20C2027F0F20C4027F3A
:0100FF0010F0
:0101000022DC
:100101007F0A12016712008F8F0CE50C650BFF55FA
:100111000CF50AE50CF45FF50D850C0B300014AFFE
:100121000E7801EF08800123D8FDF50EF590AF0997
:10013100120167E50A24FE600E14600F1460192491
:100141000370BDD20080B9C20080B574642509F581
:1001510009E43508F50880A8749C2509F50974FFA0
:060161003508F508809A44
:10000F00020101E493A3F8E493A34003F68001F205
:10001F0008DFF48029E493A3F85407240CC8C333F2
:10002F00C4540F4420C8834004F456800146F6DFC1
:10003F00E4800B0102040810204080900178E47ED8
:10004F00019360BCA3FF543F30E509541FFEE493B6
:10005F00A360010ECF54C025E060A840B8E493A37D
:10006F00FAE493A3F8E493A3C8C582C8CAC583CAA8
:10007F00F0A3C8C582C8CAC583CADFE9DEE780BE60
:01017F00007F
:00000001FF
