:03000000020414E3
:0C041400787FE4F6D8FD75814202045B9D
:1006640001420008381010101010101010082F004C
:07067400000000000000007F
:10067C007D0C7CA9EF1FAA0670011E4A6006DCFEE9
:04068C00DDFC80F021
:010690002247
:10052000E52B452A7036752A00752B01E4FF12046D
:10053000A08F41E54165405541F53785414024FC98
:10054000701A0521E521B40303E4F521E521B40186
:0D05500003852D2CE521B40203852C2D22FE
:10037600E525452460030204137524007525011242
:10038600055D8F298E288D278C26E52E14605F0447
:10039600707B75380DAF29AE28AD27AC261201F259
:1003A600EF75F00A8475F00A8485F03CEF75F00A63
:1003B6008485F03DE4FFFE7DC87C42AB29AA28A9CE
:1003C60027A82612000E1201F2AB07AA067C007DB2
:1003D6000A1202737C007D0A1202738D3E7C007D38
:1003E6000AAF03AE021202738D3F753401227538CF
:1003F6000E753C10753D10E52C75F00A8475F00AF3
:0E0406008485F03EE52C75F00A8485F03F22D7
:0D06B100E523452270067522007523012205
:10069100758901758A18758CFCC28DD28CD2AFD246
:0206A100A9228C
:03000B000202D618
:1002D600C0E0C0F0C083C082C0D075D000C000C0EE
:1002E60001C002C003C004C005C006C007758A1855
:1002F600758CFC0525E52570020524C394E8E524E4
:10030600940340067524007525000523E523700235
:100316000522C394F4E52294014006752200752354
:1003260000052BE52B7002052AC3940AE52A9400E2
:100336004006752A00752B000542E542B408037590
:10034600420074382542F8E6FD742F2542F8E6FB94
:10035600AF42120592D007D006D005D004D003D004
:1003660002D001D000D0D0D082D083D0F0D0E032FD
:10064C0012055D7FEE7E0212067C12069112037675
:08065C001206B112052080F521
:1004A000E4FEEF701420B0027E0720B1027E062029
:1004B000B2027E0520B3027E04EF6401705F75B066
:1004C000EF20B0027E0720B1027E0620B2027E0538
:1004D00020B3027E0475B0DF20B0027E0B20B10293
:1004E0007E0A20B2027E0920B3027E0875B0BF20CA
:1004F000B0027E0F20B1027E0E20B2027E0D20B32C
:10050000027E0C75B07F20B0027E1320B1027E12F5
:0F05100020B2027E1120B3027E1075B0FFAF063D
:01051F0022B9
:1005FE000102040810204080C0F9A4B0999282F83C
:0A060E0080908883C6A1868EFFBF8E
:0E06A300EFC43354E0FFE5A0541F4FF5A02232
:0A06BE008D801206A3E4FF0206A3DC
:04059200AE07AC05FF
:100596007DFF7F071206BEEE9005FE93FD7F0612D5
:1005A60006BEEC90060693FDBB010353057F7F074D
:0305B6000206BE7C
:040618007F057E00DC
:10061C00EF1FAA0670011E4A600BE4FDEDC3940C9B
:05062C0050EE0D80F707
:0106310022A6
:0205E000A90769
:1005E200E4FBC294E9139294120618D294E9C3135D
:0C05F200F90BBB08ED7F057E0002061C23
:10063200E4FBC294ECC313FCD294309403430480D1
:090642001206180BBB08EBAF0413
:01064B00228C
:1005B900C200D2947F0C7E0012061CC2947F507E2A
:1005C9000012061CD2947F0A7E0012061CA2949285
:0605D90000120618A2004A
:0105DF0022F9
:10055D001205B97FCC1205E07F441205E01205B9F2
:10056D007FCC1205E07FBE1205E0120632A90712FC
:10057D000632EFAD01FCE41201B9E4FBFA798078A3
:04058D0041120117FF
:010591002247
:10000E00EC4D6011E8497017ED33EC3304600DE4EC
:10001E00FCFFFEFD22E933E8330470F802025E12A3
:10002E00022958046009E4CC2481500628500902A4
:10003E000268284003020265C0E0EB4A7044B980B2
:10004E0006D0E0FB020254EF4E701CBD8008EBFFA1
:10005E00EAFEE9FD80EBE98DF0A4FEE5F00200F783
:10006E00E9CDF9EAFEEBFFEF89F0A4FCE5F0CE89CD
:10007E00F0A42EFFE435F0CD89F0A42DFEE435F08A
:10008E008067EF4E7005BD80D780C3EF8BF0A4ACB8
:10009E00F0EE8BF0A42CFCE435F0F8EF8AF0A42CF3
:1000AE00E5F038FCE433CB8DF0A42CFCE5F03BF806
:1000BE00EE8AF0A42CFCE5F038F8E433CF89F0A4F6
:1000CE002CFCE5F038CF3400CE89F0A42FFFE5F0FC
:1000DE003EFEE433C98DF0A42EFEE5F039CD8AF054
:1000EE00A42FFFE5F03EFEE43DFD33D0E0FB5007CC
:1000FE000BBB000F020268EC2CFCEF33FFEE33FE5D
:06010E00ED33FD0202408A
:10011400020268EC5D046005E85904700302025EA3
:10012400120229580460F6EC4860F2EC7004FDFEFB
:10013400FF22C860DB2481C85009C39860025006BE
:100144000202659850CAF582E9294B4A7005AB82D0
:1001540002025475F0007C1A7880C3EF9BEE9AED8E
:1001640099400DC3EF9BFFEE9AFEED99FDE842F036
:10017400DC23ACF0D0E0FFD0E0FED0E0FDAB822089
:10018400E7101BEB60BAEC2CFCEF33FFEE33FEED13
:1001940033FD020240E803F830E705C0F075F000D3
:1001A400EF2FFFEE33FEED33FD40B830E7C280AAF7
:1001B40075F020800E75F010800575F0087D007EC6
:1001C400007F003392D530D5031202C8EC334010BF
:1001D400EF33FFEE33FEED33FDEC33FCD5F0ED22CF
:0E01E400E5F0247EA2D513CC92E7CDCEFF220B
:1001F200EDD2E7CD33EC3392D524814006E4FFFE05
:10020200FDFC22FCE4CFCECDCC24E0501174FF8063
:10021200EDC3CC13CCCD13CDCE13CECF13CF047000
:07022200F030D5DE0202C836
:10022900E9D2E7C933E833F892D5EDD2E7CD33EC1B
:0702390033FC5002B2D52294
:10024000EC30E7100FBF000C0EBE00080DBD00041F
:100250000BEB6014A2D5EB13FCED92E7FD2274FFCB
:10026000FCFDFEFF22E480F8A2D574FF13FC7D8024
:03027000E480EF38
:1004200002064CE493A3F8E493A34003F68001F2A0
:1004300008DFF48029E493A3F85407240CC8C333DD
:10044000C4540F4420C8834004F456800146F6DFAC
:10045000E4800B0102040810204080900664E47ED2
:10046000019360BCA3FF543F30E509541FFEE493A1
:10047000A360010ECF54C025E060A840B8E493A368
:10048000FAE493A3F8E493A3C8C582C8CAC583CA93
:10049000F0A3C8C582C8CAC583CADFE9DEE780BE4B
:01067B00007E
:10027300BC000BBE0029EF8DF084FFADF022E4CC6F
:10028300F875F008EF2FFFEE33FEEC33FCEE9DEC38
:10029300984005FCEE9DFE0FD5F0E9E4CEFD22ED7E
:1002A300F8F5F0EE8420D21CFEADF075F008EF2FC8
:1002B300FFED33FD4007985006D5F0F222C398FDB9
:0502C3000FD5F0EA2256
:0E02C800C3E49FFFE49EFEE49DFDE49CFC2247
:00000001FF
