:030000000200C734
:0C00C700787FE4F6D8FD7581070200D3B5
:1000710053A01FEF24FB601314601914601F2403A5
:100081007023E5A0541F4480F5A022E5A0541F442D
:10009100A0F5A022E5A0541F44C0F5A022E5A0547C
:0600A1001F44E0F5A0225F
:0B00A700F580E4FF1200717F647E0012
:1000B200EF1FAC0670011E4C600A7D0C7CA9DCFEB1
:0400C200DDFC80ECF5
:0100C6002217
:10000300E4FBFA7F04120071E4F5801200AA7F0476
:100013001200717580FF1200A90BBB00010AEB648B
:10002300034A70DF7A007B017F04120071AF03740F
:10003300FFA807088002C333D8FC1200A70BBB003C
:10004300010AEB64094A70E07A007B017F04120025
:1000530071AF0374FFA807088002C333D8FCF412FE
:0D00630000A70BBB00010AEB64094A70DF27
:01007000226D
:0A00D300E4FF12007112000380FB2D
:00000001FF
