:0300000002000EED
:0C000E00787FE4F6D8FD75810B020055E8
:0700030001083C020A0000A5
:09013600E5A0541F4480F5A0224D
:100110005389F0758A50758CFBC28DD2A9D2AF225B
:03000B000200EC04
:1000EC00C0E0C0D0758A50758CFB0509E509B508D0
:1000FC0004D280800AE509B46405C280750900D079
:04010C00D0D0E0323D
:0B012000EF1FAC0670011E4C70F622B1
:10009A0020B04E7F647E0012012020B044E50A7031
:1000AA003DE50B1460191460211460292403702E95
:1000BA00C280D28C75080A750A00750B01801F75FB
:1000CA000832750A00750B02801475085A750A0001
:1000DA00750B038009C28CD280E4F50AF50B30B0A7
:0200EA00FD22F5
:0B012B0012013612011012009A80FB36
:10001A0002012BE493A3F8E493A34003F68001F2D0
:10002A0008DFF48029E493A3F85407240CC8C333E7
:10003A00C4540F4420C8834004F456800146F6DFB6
:10004A00E4800B0102040810204080900003E47E43
:10005A00019360BCA3FF543F30E509541FFEE493AB
:10006A00A360010ECF54C025E060A840B8E493A372
:10007A00FAE493A3F8E493A3C8C582C8CAC583CA9D
:10008A00F0A3C8C582C8CAC583CADFE9DEE780BE55
:01000A0000F5
:00000001FF
