:030000000200807B
:0C008000787FE4F6D8FD75810802003995
:10006E00C0F9A4B0999282F880908880C6C0868E1E
:02007E00BF7F42
:10005900EF1FAC0670011E4C600A7D0C7CA9DCFE0A
:04006900DDFC80EC4E
:01006D002270
:1000030053A01FEF24FB601314601914601F240313
:100013007023E5A0541F4480F5A022E5A0541F449B
:10002300A0F5A022E5A0541F44C0F5A022E5A054EA
:060033001F44E0F5A022CD
:0A008C008D80120003E4FF02000360
:1000390020B0FD7F647E0012005920B0F37DFE7F61
:100049000412008C20B0FD7DFF7F0412008C80E03B
:00000001FF
