:030000000200B843
:0C00B800787FE4F6D8FD7581070200CEC9
:1000A600C0F9A4B0999282F880908880C6C0868EE6
:0200B600BF7F0A
:10009100EF1FAC0670011E4C600A7D0C7CA9DCFED2
:0400A100DDFC80EC16
:0100A5002238
:1000410053A01FEF24FB601314601914601F2403D5
:100051007023E5A0541F4480F5A022E5A0541F445D
:10006100A0F5A022E5A0541F44C0F5A022E5A054AC
:060071001F44E0F5A0228F
:0A00C4008D80120041E4FF020041AC
:10007700AE057401A807088002C333D8FCFD7F06CC
:0A0087001200C4AD067F070200C49A
:10000300E4FBE4FAAF03EA9000A693FD1200777FC6
:10001300647E001200910ABA0AEA0BBB08E4E4FB0F
:100023007DFF7F061200C4EB9000A693FD7F0712AD
:0D00330000C47FE87E031200910BBB10E3B8
:01004000229D
:0500CE0012000380FB9D
:00000001FF
