:03000000020003F8
:0C000300787FE4F6D8FD75810A02004AFF
:10017400C0F9A4B0999282F880908880C6C0868E17
:02018400BF7F3B
:07019000010A010208000052
:10015F00EF1FAC0670011E4C600A7D0C7CA9DCFE03
:04016F00DDFC80EC47
:010173002269
:1000D20053A01FEF24FB601314601914601F240344
:1000E2007023E5A0541F4480F5A022E5A0541F44CC
:1000F200A0F5A022E5A0541F44C0F5A022E5A0541B
:060102001F44E0F5A022FD
:0A0186008D801200D2E4FF0200D2C7
:10010800AE07AF057401A807088002C333D8FCFD09
:100118007F06120186EE90017493FD7F0712018617
:0E0128007F027E0012015F7DFF7F07020186CD
:10008F00AB07E4FD7F021201087D01E4FF120108B6
:10009F007D027F021201087D037F061201087D0495
:1000AF007F101201087D057F10120108EB75F00A11
:1000BF0084FF7D06120108EB75F00A84AFF07D070F
:0300CF0002010823
:10013600AF0A12008F0509E50970020508C3941E6F
:10014600E508940040EAE4F508F509050AE50AD34E
:09015600940C40DC750A0180D70D
:10000F00020136E493A3F8E493A34003F68001F2D0
:10001F0008DFF48029E493A3F85407240CC8C333F2
:10002F00C4540F4420C8834004F456800146F6DFC1
:10003F00E4800B0102040810204080900190E47EC0
:10004F00019360BCA3FF543F30E509541FFEE493B6
:10005F00A360010ECF54C025E060A840B8E493A37D
:10006F00FAE493A3F8E493A3C8C582C8CAC583CAA8
:10007F00F0A3C8C582C8CAC583CADFE9DEE780BE60
:010197000067
:00000001FF
