:030000000200A754
:0C00A700787FE4F6D8FD7581190200EEA8
:1001A40020B0027F0120B1027F0220B2027F03202F
:0401B400B3027F040F
:0101B8002224
:1001330001020408102040803F065B4F666D7D0777
:100143007F6F777C395E79710040761E7038375C3B
:10015300733E783D6750376EBF86DBCFE6EDFD8794
:03016300FFEF4665
:0E01CB00EFC43354E0FFE5A0541F4FF5A0220F
:0A020F008D801201CBE4FF0201CB49
:10016600AE05AC077DFF7F0712020FEC90013393BB
:10017600FD7F0612020FEE90013B93FD7F07020200
:010186000F69
:0D01E700011900080F0001020304050607BE
:10018700E50D450C7016750C00750D011201A48F55
:0D01970018E51865175518F50E8518172284
:0D01F500E50B450A7006750A00750B012226
:0D020200E509450870067508007509012220
:1001B900758901758A18758CFCC28DD28CD2AFD223
:0201C900A92269
:03000B0002000EE2
:10000E00C0E0C0F0C083C082C0D075D000C000C0B8
:10001E0001C002C003C004C005C006C007758A181F
:10002E00758CFC050BE50B7002050AC394F4E50A0A
:10003E0094014006750A00750B000509E50970026A
:10004E000508C394F4E50894014006750800750987
:10005E0000050DE50D7002050CC3940AE50C940025
:10006E004006750C00750D000519E519B4080375E9
:10007E001900740F2519F8E6FDAF19120166D007A5
:10008E00D006D005D004D003D002D001D000D0D0FD
:09009E00D082D083D0F0D0E03212
:0E01D9001201B91201F512020212018780F51F
:1000B3000201D9E493A3F8E493A34003F68001F289
:1000C30008DFF48029E493A3F85407240CC8C3334E
:1000D300C4540F4420C8834004F456800146F6DF1D
:1000E300E4800B01020408102040809001E7E47EC5
:1000F300019360BCA3FF543F30E509541FFEE49312
:10010300A360010ECF54C025E060A840B8E493A3D8
:10011300FAE493A3F8E493A3C8C582C8CAC583CA03
:10012300F0A3C8C582C8CAC583CADFE9DEE780BEBB
:0101F400000A
:00000001FF
