:0300000002000EED
:0C000E00787FE4F6D8FD75810A020055E9
:1001B600C0F9A4B0999282F880908880C6C0868ED5
:0201C600BF7FF9
:09020600010800010900010A00D1
:1001A1007D0C7CA9EF1FAA0670011E4A6006DCFEC9
:0401B100DDFC80F001
:0101B5002227
:0E01D800EFC43354E0FFE5A0541F4FF5A02202
:0A01FC008D801201D8E4FF0201D843
:10015F00AE05AC077DFF7F071201FCAF067401A847
:10016F0007088002C333D8FCFD7F061201FCAD04E3
:05017F007F070201FCF6
:1001840075F00A84E5F09001B693FF12015F7FF4E5
:020194007E01EA
:0B019600EF1FAC0670011E4C70F6223B
:10009A00E50A7D07120184E50A75F00A8493FF7D5B
:1000AA000612018F9001C7E493FF7D0512018FE5C7
:1000BA00097D04120184E50975F00A8493FF7D0322
:1000CA0012018F9001C7E493FF7D0212018FE508A8
:1000DA0075F00A84E5F09001B693FF7D0112018F55
:1000EA00E50875F00A8493FFE4FD12015F7FF47E50
:0400FA000102019668
:1001C800758901758C3C758AAFD2A9D2AFD28C22C1
:03000B00020132BD
:10013200C0E0C0D0758C3C758AAF050AE50AB414DC
:10014200050509750A00E509B43C050508750900AD
:0D015200E508B46303750800D0D0D0E0329A
:0B01E600EF1FAC0670011E4C70F622EB
:1000FE0020B3147F647E001201E620B30AB28C2076
:10010E00B30512009A80F820B2197F647E001201A6
:10011E00E620B20FE4F508F509F50A20B205120043
:04012E009A80F82299
:0B01F1001201C812009A1200FE80F8F4
:10001A000201F1E493A3F8E493A34003F68001F20A
:10002A0008DFF48029E493A3F85407240CC8C333E7
:10003A00C4540F4420C8834004F456800146F6DFB6
:10004A00E4800B0102040810204080900206E47E3E
:10005A00019360BCA3FF543F30E509541FFEE493AB
:10006A00A360010ECF54C025E060A840B8E493A372
:10007A00FAE493A3F8E493A3C8C582C8CAC583CA9D
:10008A00F0A3C8C582C8CAC583CADFE9DEE780BE55
:01020F0000EE
:00000001FF
