:0300000002000EED
:0C000E00787FE4F6D8FD75810B020055E8
:0800F90002080000020A0000E9
:0E00E100EFC43354E0FFE5A0541F4FF5A022FA
:1000D100758901758C3C758BAFD2A9D2AFD28C22B8
:03000B0002009A56
:10009A00C0E0758C3C758AAF0509E5097002050850
:1000AA00050BE50B7002050AE509640A45087006A6
:1000BA00B280F508F509E50B6432450A7006B28785
:0700CA00F50AF50BD0E0324E
:0A00EF007F041200E11200D180FE30
:10001A000200EFE493A3F8E493A34003F68001F20D
:10002A0008DFF48029E493A3F85407240CC8C333E7
:10003A00C4540F4420C8834004F456800146F6DFB6
:10004A00E4800B01020408102040809000F9E47E4D
:10005A00019360BCA3FF543F30E509541FFEE493AB
:10006A00A360010ECF54C025E060A840B8E493A372
:10007A00FAE493A3F8E493A3C8C582C8CAC583CA9D
:10008A00F0A3C8C582C8CAC583CADFE9DEE780BE55
:0101010000FD
:00000001FF
