:030000000203E117
:0C03E100787FE4F6D8FD758159020428ED
:10055C00013F00082E1010101010101010012C006C
:10056C0001271E03370F1E3C012D01032123595572
:1004F000E53E7067753E011207058F3DE53D653CA1
:10050000FF553DF536E53DF45FF524853D3CE53688
:1005100024FE601114601B1460322403703DE52C2E
:100520007039D20022E52C70327437252DF8E6F5AB
:100530002722E52CB401087437252DF8E6F527E5C8
:100540002C70047F0180027F008F2C22E52CB401E7
:0C0550000A052DE52DB40303E4F52D226F
:10046D00E53B453A707C753A00753B017B007A009F
:10047D00792112067BE521C4540FF52EE521540F89
:10048D00F52F753011E522C4540FF531E522540FC7
:10049D00F532753311E523C4540FF534E523540FAC
:1004AD00F53512059B8F2B8E2A8D298C281201F282
:1004BD00EF75F00A8475F00A8485F02EEF75F00A59
:1004CD008485F02FE4FFFE7D207C41AB2BAA2AA969
:1004DD0029A82812000E1201F27C007D0A1202EDED
:0304ED008D30222D
:0100030022DA
:10071B005389F0438901758CFC758A18C28DD28C74
:05072B00D2A9D2AF22AB
:03000B000203509D
:10035000C0E0C0F0C083C082C0D075D000C000C073
:1003600001C002C003C004C005C006C007758CFCF4
:10037000758A18053EE53EB40A03753E00053BE567
:100380003B7002053AFFAE3ABE0109BFF406753A6A
:1003900000753B00053FE53FB40803753F00742E30
:1003A000253FF8E6FDAF3F12065A3000190526E555
:1003B0002670020525FFAE25BE030BBFE808752594
:1003C000007526001527D007D006D005D004D0032D
:1003D000D002D001D000D0D0D082D083D0F0D0E0F5
:0103E00032EA
:1006EE0012071B7B007A0079211206041204F01205
:0706FE00046D12000380F5FA
:10070500E4FF20B0010F20B1027F0220B2027F0377
:0507150020B3027F0487
:01071A0022BC
:10057C001240C0F9A4B0999282F880908883C6A1E9
:0E058C00868EBF7F08520102040810204080B6
:0E075700EFC43354E0FFE5A0541F4FF5A0227D
:0A0765008D80120757E4FF020757CA
:10065A00AE05AC077DFF7F0712076574522CF8E6DA
:10066A00FD7F0612076574402EF8E6FD7F07020734
:01067A00651A
:10074400E4FEC297EF1392A3EFC313FFD2970EBE3A
:0207540008F0AB
:010756002280
:10073000C29300C29700D29300120744AF0512077C
:0407400044C29322FA
:1005D000E4FDC29300C29700D29300120744E4FFE7
:1005E000C297EDC313FD30A303430580D2970FBF1D
:1005F00008EEC29300C29700D29700C2A300D2A314
:0306000000AF0543
:0106030022D4
:10060400E4FD7F8E120730120273FD7F84120730DF
:1006140090000112028CFD7F8212073090000212BA
:0F062400028CFD7F801207307D807F8E020730B1
:10067B007F851205D0EF1202B97F831205D090004F
:10068B0001EF1202CB7F811205D0900002EF020224
:01069B00CB93
:0406BA007F057E003A
:1006BE00EF1FAA0670011E4A600BE4FDEDC3940CF9
:0506CE0050EE0D80F765
:0106D3002204
:02069C00A907AC
:10069E00E4FBC294E91392941206BAD294E9C313FE
:0C06AE00F90BBB08ED7F057E000206BEC4
:1006D400E4FBC294ECC313FCD2943094034304802F
:0906E4001206BA0BBB08EBAF04CF
:0106ED0022EA
:10063300C201D2947F0C7E001206BEC2947F507E0C
:10064300001206BED2947F0A7E001206BEA29492C6
:06065300011206BAA2012B
:01065900227E
:10059B001206337FCC12069C7F4412069C12063344
:1005AB007FCC12069C7FBE12069C1206D4A90712A2
:1005BB0006D4EFAD01FCE41201B9E4FBFA798078C3
:0405CB0041120117C1
:0105CF002209
:10000E00EC4D6011E8497017ED33EC3304600DE4EC
:10001E00FCFFFEFD22E933E8330470F802025E12A3
:10002E00022958046009E4CC2481500628500902A4
:10003E000268284003020265C0E0EB4A7044B980B2
:10004E0006D0E0FB020254EF4E701CBD8008EBFFA1
:10005E00EAFEE9FD80EBE98DF0A4FEE5F00200F783
:10006E00E9CDF9EAFEEBFFEF89F0A4FCE5F0CE89CD
:10007E00F0A42EFFE435F0CD89F0A42DFEE435F08A
:10008E008067EF4E7005BD80D780C3EF8BF0A4ACB8
:10009E00F0EE8BF0A42CFCE435F0F8EF8AF0A42CF3
:1000AE00E5F038FCE433CB8DF0A42CFCE5F03BF806
:1000BE00EE8AF0A42CFCE5F038F8E433CF89F0A4F6
:1000CE002CFCE5F038CF3400CE89F0A42FFFE5F0FC
:1000DE003EFEE433C98DF0A42EFEE5F039CD8AF054
:1000EE00A42FFFE5F03EFEE43DFD33D0E0FB5007CC
:1000FE000BBB000F020268EC2CFCEF33FFEE33FE5D
:06010E00ED33FD0202408A
:10011400020268EC5D046005E85904700302025EA3
:10012400120229580460F6EC4860F2EC7004FDFEFB
:10013400FF22C860DB2481C85009C39860025006BE
:100144000202659850CAF582E9294B4A7005AB82D0
:1001540002025475F0007C1A7880C3EF9BEE9AED8E
:1001640099400DC3EF9BFFEE9AFEED99FDE842F036
:10017400DC23ACF0D0E0FFD0E0FED0E0FDAB822089
:10018400E7101BEB60BAEC2CFCEF33FFEE33FEED13
:1001940033FD020240E803F830E705C0F075F000D3
:1001A400EF2FFFEE33FEED33FD40B830E7C280AAF7
:1001B40075F020800E75F010800575F0087D007EC6
:1001C400007F003392D530D503120342EC33401044
:1001D400EF33FFEE33FEED33FDEC33FCD5F0ED22CF
:0E01E400E5F0247EA2D513CC92E7CDCEFF220B
:1001F200EDD2E7CD33EC3392D524814006E4FFFE05
:10020200FDFC22FCE4CFCECDCC24E0501174FF8063
:10021200EDC3CC13CCCD13CDCE13CECF13CF047000
:07022200F030D5DE020342BB
:10022900E9D2E7C933E833F892D5EDD2E7CD33EC1B
:0702390033FC5002B2D52294
:10024000EC30E7100FBF000C0EBE00080DBD00041F
:100250000BEB6014A2D5EB13FCED92E7FD2274FFCB
:10026000FCFDFEFF22E480F8A2D574FF13FC7D8024
:03027000E480EF38
:1003ED000206EEE493A3F8E493A34003F68001F232
:1003FD0008DFF48029E493A3F85407240CC8C33311
:10040D00C4540F4420C8834004F456800146F6DFDF
:10041D00E4800B010204081020408090055CE47E0E
:10042D00019360BCA3FF543F30E509541FFEE493D4
:10043D00A360010ECF54C025E060A840B8E493A39B
:10044D00FAE493A3F8E493A3C8C582C8CAC583CAC6
:10045D00F0A3C8C582C8CAC583CADFE9DEE780BE7E
:01059A000060
:10027300BB010689828A83E0225002E722BBFE0289
:09028300E32289828A83E49322BC
:10028C00BB010CE58229F582E5833AF583E0225027
:10029C0006E92582F8E622BBFE06E92582F8E22271
:0D02AC00E58229F582E5833AF583E493228B
:1002B900BB010689828A83F0225002F722BBFE0124
:0202C900F3221E
:1002CB00F8BB010DE58229F582E5833AF583E8F069
:1002DB00225006E92582C8F622BBFE05E92582C815
:0202EB00F222FD
:1002ED00BC000BBE0029EF8DF084FFADF022E4CCF5
:1002FD00F875F008EF2FFFEE33FEEC33FCEE9DECBE
:10030D00984005FCEE9DFE0FD5F0E9E4CEFD22ED03
:10031D00F8F5F0EE8420D21CFEADF075F008EF2F4D
:10032D00FFED33FD4007985006D5F0F222C398FD3E
:05033D000FD5F0EA22DB
:0E034200C3E49FFFE49EFEE49DFDE49CFC22CC
:00000001FF
