:0300000002000EED
:0C000E00787FE4F6D8FD758118020055DB
:10024700080D0811111111111111011800020B00ED
:05025700000209000097
:10025D00438E805389F0758A20758CD1C28DD28CD6
:05026D00D2A9D2AF226E
:03000B0002010CE3
:10010C00C0E0C0F0C083C082C0D075D000C000C0B9
:10011C0001C002C003C004C005C006C007050CE541
:10012C000C7002050B050AE50A70020509740D2511
:10013C0018F8E6FDAF181201E30518E518C394088A
:10014C004003751800D007D006D005D004D003D0DA
:10015C0002D001D000D0D0D082D083D0F0D0E03209
:10016C00C3E50C940AE50B94004035E4F50BF50C53
:10017C0012009A8F17E5176516FF5517F515E51739
:10018C00F45FF508851716E51524F8600C24F86063
:10019C000C240C700B750D0122750D0222750D11BE
:0101AC002230
:10027200C3E50A94F4E50994014005E4F509F50A99
:010282002259
:0E02830012022E12025D12016C12027280F83D
:10021400C0F9A4B0999282F880908883C6A1868E92
:0A022400BFFF010204081020408013
:1001AD0053A01FEF24FB601314601914601F240368
:1001BD007023E5A0541F4480F5A022E5A0541F44F0
:1001CD00A0F5A022E5A0541F44C0F5A022E5A0543F
:0601DD001F44E0F5A02222
:10022E007F051201ADE4F580FF1201AD7F041201CE
:09023E00AD7580FFE4FF0201AD83
:1001E300AE077580FF7F071201ADE4FF1201ADEE8C
:1001F30090022693F5807F061201ADE4FF1201AD54
:10020300ED90021493F5807F071201ADE4FF020124
:01021300AD3D
:10009A00E4FFC2B0D2B1D2B2D2B320B4010F20B5BC
:1000AA00027F0220C2027F0320C4027F04D2B0C2B0
:1000BA00B1D2B2D2B320B4027F0520B5027F0620A6
:1000CA00C2027F0720C4027F08D2B0D2B1C2B2D224
:1000DA00B320B4027F0920B5027F0A20C2027F0B37
:1000EA0020C4027F0CD2B0D2B1D2B2C2B320B402C1
:1000FA007F0D20B5027F0E20C2027F0F20C4027F2F
:01010A0010E4
:01010B0022D1
:10001A00020283E493A3F8E493A34003F68001F277
:10002A0008DFF48029E493A3F85407240CC8C333E7
:10003A00C4540F4420C8834004F456800146F6DFB6
:10004A00E4800B0102040810204080900247E47EFD
:10005A00019360BCA3FF543F30E509541FFEE493AB
:10006A00A360010ECF54C025E060A840B8E493A372
:10007A00FAE493A3F8E493A3C8C582C8CAC583CA9D
:10008A00F0A3C8C582C8CAC583CADFE9DEE780BE55
:01025C0000A1
:00000001FF
