:0300EC00010CFE06
:1000D700EF1FAC0670011E4C600A7D0C7CA9DCFE8C
:0400E700DDFC80ECD0
:0100EB0022F2
:1000C100E4FF20B4010F20B5027F0220B6027F03B6
:0500D10020B7027F04CE
:0100D6002207
:10008F001200C18F0AE50A6509FF550AF508E50A4E
:10009F00F45FF50B850A09E508B40102C290E50B80
:1000AF00B40202D290E509B40304C29180D2D29176
:0200BF0080CEF1
:03000000020003F8
:0C000300787FE4F6D8FD75810C02004AFD
:10000F0002008FE493A3F8E493A34003F68001F278
:10001F0008DFF48029E493A3F85407240CC8C333F2
:10002F00C4540F4420C8834004F456800146F6DFC1
:10003F00E4800B01020408102040809000ECE47E65
:10004F00019360BCA3FF543F30E509541FFEE493B6
:10005F00A360010ECF54C025E060A840B8E493A37D
:10006F00FAE493A3F8E493A3C8C582C8CAC583CAA8
:10007F00F0A3C8C582C8CAC583CADFE9DEE780BE60
:0100EF000010
:00000001FF
