:100459000123000858101010101010101008600027
:1004690000000000000000089000000000000000EB
:1004790000012F00013300073425040508235953CF
:10048900023F1E5002300000022D000001560001FB
:0804990057000121000122506F
:060A7D00200102D201225B
:10095D00200019D20012091E8F2AE529652AFF559C
:0D096D002AF524E52AF45FF532852A2922B7
:060A8300200302D2032251
:060A8900200202D202224D
:03000B000203D11C
:1003D100C0E0C0F0C083C082C0D075D000C000C0F2
:1003E10001C002C003C004C005C006C0070523E563
:1003F1002375F00A84E5F07004C200C201E523759B
:10040100F02884E5F07004C202C203E52375F0C848
:100411008485F023E5235407FF2458F8E6FD7C008A
:10042100E52354072460F8E6FB7A0012058CE523E6
:100431005407FF2490F8E6FD7C0012060BD007D08C
:1004410006D005D004D003D002D001D000D0D0D046
:0804510082D083D0F0D0E0322C
:100A21001206811209E2120A7D12095D120A83126D
:040A31000A8980F2BC
:100681007580FFE5A0541F4480F5A053A01F75801D
:10069100AFE5A0541F44A0F5A053A01FE4F580E5E9
:1006A100A0541F44C0F5A053A01F7580FFE5A054BE
:0906B1001F44E0F5A053A01F2234
:1009E200538E7F5389F0758A18758CFCC28DD28C18
:0509F200D2AFD2A922E2
:1008FD00538E3F758904758AFF758CFF758B18753E
:10090D008DFCC28FC28DD28ED28CD2AFD2ABD2A97A
:01091D0022B7
:100A4900538EFB75D79C75D6FF438E1043AF04D2E6
:020A5900AF22CA
:10091E00E4FFC2B3C2B2D2C2D2C420C4027F04204A
:10092E00C2027F08C2C2C2C4D2B3D2B220B2010F79
:01093E002296
:10075C0001020408102040803F065B4F666D7D0748
:10076C007F6F777C395E79710040761E7038375C0C
:10077C00733E783D6750376EBF86DBCFE6EDFD8765
:03078C00FFEF4636
:10058C007580FFE5A0541F44E0F5A053A01FEF9029
:10059C00075C93F580E5A0541F44C0F5A053A01F41
:1005AC0074642DF58274073CF583E493F4F580EBC9
:1005BC004A600353807FE5A0541F44E0F5A053A08C
:0205CC001F22EC
:1002AC008B088A09890A050AE50A7002050914F9FE
:1002BC00ED12028CAB08050AE50AAA0970020509C1
:1002CC0014F9E50D12028CAB08050AE50AAA0970AF
:1002DC0002050914F9E50F12028CAB08050AE50AB0
:1002EC00AA097002050914F9E51112028CAB080574
:1002FC000AE50AAA097002050914F9E51312028C21
:10030C00AB08050AE50AAA097002050914F9E515F6
:10031C0012028CAB08050AE50AAA09700205091439
:10032C00F9E51712028CAB08050AE50AAA09700256
:09033C00050914F9E51902028C0F
:0C04A100014B00014CFF014900014AFF23
:10060B00ED4C600FA8077401088002C333D8FC427D
:10061B0049800EA8077401088002C333D8FCF4523A
:10062B0049E549654A6013E549F4F580E5A0541F97
:0A063B004480F5A053A01F85494A32
:010645002292
:10087100EF6005434B408003534BBFE54B654C6034
:1008810011854B80E5A0541F44A0F5A053A01F85FE
:030891004B4C22AB
:10089400EF6005434B108003534BEFE54B654C6011
:1008A40011854B80E5A0541F44A0F5A053A01F85DB
:0308B4004B4C2288
:1008B700EF6005434B208003534BDFE54B654C60EE
:1008C70011854B80E5A0541F44A0F5A053A01F85B8
:0308D7004B4C2265
:10097A00E4FEEEC3940874809480500FC297EF137C
:0B098A0092A3EFC313FFD2970E80E78B
:01099500223F
:100A3500C29300C29700D2930012097AAF0512093A
:040A45007AC29322BC
:1005CE00E4FDC29300C29700D2930012097AE4FFB1
:1005DE00EFC39408748094805011C297EDC313FD3D
:1005EE0030A303430580D2970F80E5C29300C297D4
:0C05FE0000D29700C2A300D2A300AF05FA
:01060A0022CD
:060544008B4D8A4E894F29
:10054A00E4FD7F8E120A357D807F80120A35E4FC35
:10055A00ECC39407748094805021EC25E0FFC374A7
:10056A008C9FFFAB4D054FE54FAA4E7002054E1406
:10057A00F9120273FD120A350C80D57D807F8E0236
:02058A000A3530
:060728008B508A5189523A
:10072E00E4FCECC39407748094805021EC25E0FF28
:10073E00C3748D9FFF1205CEAB500552E552AA51E0
:0D074E007002055114F9EF12028C0C80D5D9
:01075B00227B
:04093F007F057E00B2
:10094300EF1FAA0670011E4A600FE4FDEDC3940C6D
:090953007480948050EA0D80F3D9
:01095C002278
:02078F00A907B8
:10079100E4FBEBC39408748094805012C294E91373
:1007A100929412093FD294E9C313F90B80E47F05B7
:0507B1007E0002094377
:1008DA00E4FBEBC39408748094805014C294ECC374
:1008EA0013FCD29430940343048012093F0B80E234
:0208FA00AF0449
:0108FC0022D9
:1007B600C204D2947F0C7E00120943C2947F507EFD
:1007C60000120943D2947F0A7E00120943A2949232
:0607D6000412093FA20419
:0107DC0022FA
:100646001207B67FCC12078F7F4412078F7FC87EB2
:10065600001209431207B67FCC12078F7FBE12071E
:100666008F1208DAA9071208DAEFAD01FCEC1201C5
:0B067600B9E4FBFA798078410201171B
:04099600D2A07F0567
:10099A00000000000000000000000000000000AE9F
:0609AA00071FEE70EB22B6
:0F0A5B00D2A1120996C2A17F0512099AC2A02248
:0C0A6A00C2A1120996D2A17F0502099AD0
:0206F300AD0751
:1006F500E4FCECC39408748094805024C2A07F0568
:1007050012099AED30E704D2A18002C2A17F051239
:10071500099AD2A0ED25E0FD7F0512099A0C80D239
:02072500C2A070
:0107270022AF
:1007DD00E4FCECC39408748094805017120996EDD4
:1007ED0025E0FD30A103430501C2A07F0512099A42
:0507FD000C80DFAF05D8
:0108020022D3
:10084D00AB05120A5B7FA01206F312085FAF03120D
:02085D0006F3A0
:10085F00120996A2A1E433FDC2A07F0512099AAF37
:01086F000583
:010870002265
:1009CA00C2A0EF24FF92A17F0512099A120996C2CA
:0809DA00A0D2A17F0502099AD9
:1009F700AB07120A5B7F901206F312085F7F411262
:050A07000854020A6A18
:02080300AB0741
:10080500120A5B7F90120854120A5B7F911206F35D
:1008150012085F1207DDAD077F011209CA120A6AC5
:02082500AF051D
:0108270022AE
:1004AE008B1A8A1B891C12084DE51F151FAE1E7074
:1004BE0002151E4E601FAB1A051CE51CAA1B70020E
:1004CE00051B14F9120273FF1206F312085F7FC8A0
:1004DE0012099A80D4120A6A7FFA12099A7FFA12C6
:0C04EE00099A7FFA12099A7FFA02099A13
:1004FA008B438A44894512084D120A5B7FA1120672
:10050A00F312085FE5481548AE47700215474E607A
:10051A00261207DDAB430545E545AA4470020544AA
:10052A0014F9EF12028CE54845476004E4FF8002A3
:0A053A007F011209CA80CD020A6A8F
:100A0C00759850438E01538EFB75D7E675D6FF4310
:050A1C008E10D2AC2297
:080003008F993099FDC299228A
:100828008B538A548955AB53AA54A9551202736045
:10083800130555E5557002055414F9120273FF1299
:05084800000380E22224
:060A760000007F26DFFEF8
:010A7C002257
:1009B000E4FEEEC3940874809480500DD290120A25
:0909C00076C290120A760E80E95D
:0109C900220B
:1006BA00E4F5D9F5F9F5E91209B0D2DE3091033043
:1006CA00DFFAC2DE30DF05C2DF7F0022AFF9EFFEBC
:1006DA00ADE9EDFFAC06E41201B97B967A43798B5A
:0806EA00783C12000E1201F22F
:0106F20022E5
:10000E00EC4D6011E8497017ED33EC3304600DE4EC
:10001E00FCFFFEFD22E933E8330470F802025E12A3
:10002E00022958046009E4CC2481500628500902A4
:10003E000268284003020265C0E0EB4A7044B980B2
:10004E0006D0E0FB020254EF4E701CBD8008EBFFA1
:10005E00EAFEE9FD80EBE98DF0A4FEE5F00200F783
:10006E00E9CDF9EAFEEBFFEF89F0A4FCE5F0CE89CD
:10007E00F0A42EFFE435F0CD89F0A42DFEE435F08A
:10008E008067EF4E7005BD80D780C3EF8BF0A4ACB8
:10009E00F0EE8BF0A42CFCE435F0F8EF8AF0A42CF3
:1000AE00E5F038FCE433CB8DF0A42CFCE5F03BF806
:1000BE00EE8AF0A42CFCE5F038F8E433CF89F0A4F6
:1000CE002CFCE5F038CF3400CE89F0A42FFFE5F0FC
:1000DE003EFEE433C98DF0A42EFEE5F039CD8AF054
:1000EE00A42FFFE5F03EFEE43DFD33D0E0FB5007CC
:1000FE000BBB000F020268EC2CFCEF33FFEE33FE5D
:06010E00ED33FD0202408A
:10011400020268EC5D046005E85904700302025EA3
:10012400120229580460F6EC4860F2EC7004FDFEFB
:10013400FF22C860DB2481C85009C39860025006BE
:100144000202659850CAF582E9294B4A7005AB82D0
:1001540002025475F0007C1A7880C3EF9BEE9AED8E
:1001640099400DC3EF9BFFEE9AFEED99FDE842F036
:10017400DC23ACF0D0E0FFD0E0FED0E0FDAB822089
:10018400E7101BEB60BAEC2CFCEF33FFEE33FEED13
:1001940033FD020240E803F830E705C0F075F000D3
:1001A400EF2FFFEE33FEED33FD40B830E7C280AAF7
:1001B40075F020800E75F010800575F0087D007EC6
:1001C400007F003392D530D50312029EEC334010E9
:1001D400EF33FFEE33FEED33FDEC33FCD5F0ED22CF
:0E01E400E5F0247EA2D513CC92E7CDCEFF220B
:1001F200EDD2E7CD33EC3392D524814006E4FFFE05
:10020200FDFC22FCE4CFCECDCC24E0501174FF8063
:10021200EDC3CC13CCCD13CDCE13CECF13CF047000
:07022200F030D5DE02029E60
:10022900E9D2E7C933E833F892D5EDD2E7CD33EC1B
:0702390033FC5002B2D52294
:10024000EC30E7100FBF000C0EBE00080DBD00041F
:100250000BEB6014A2D5EB13FCED92E7FD2274FFCB
:10026000FCFDFEFF22E480F8A2D574FF13FC7D8024
:03027000E480EF38
:03000000020345B3
:0C034500787FE4F6D8FD75819702038CE8
:10027300BB010689828A83E0225002E722BBFE0289
:09028300E32289828A83E49322BC
:10028C00BB010689828A83F0225002F722BBFE0151
:02029C00F3224B
:0E029E00C3E49FFFE49EFEE49DFDE49CFC2271
:10035100020A21E493A3F8E493A34003F68001F297
:1003610008DFF48029E493A3F85407240CC8C333AD
:10037100C4540F4420C8834004F456800146F6DF7C
:10038100E4800B0102040810204080900459E47EAF
:10039100019360BCA3FF543F30E509541FFEE49371
:1003A100A360010ECF54C025E060A840B8E493A338
:1003B100FAE493A3F8E493A3C8C582C8CAC583CA63
:1003C100F0A3C8C582C8CAC583CADFE9DEE780BE1B
:0104AD00004E
:00000001FF
