:030000000200C734
:0C00C700787FE4F6D8FD7581070200B4D4
:10005F0053A01FEF24FB601314601914601F2403B7
:10006F007023E5A0541F4480F5A022E5A0541F443F
:10007F00A0F5A022E5A0541F44C0F5A022E5A0548E
:06008F001F44E0F5A02271
:0A009500FD7F041200D37F647E009B
:10009F00EF1FAC0670011E4C600A7D0C7CA9DCFEC4
:0400AF00DDFC80EC08
:0100B300222A
:0A00D30012005F8D80E4FF02005F61
:10000300E4FBE41200957DFF1200960BBB03F37B28
:100013000174FFA803088002C333D8FC1200950BB8
:10002300BB09EE7D107F051200D37F107E271200DF
:100033009F7D407F051200D37F107E2712009FE42F
:10004300FD7F051200987B0174FFA803088002C39B
:0B00530033D8FCF41200950BBB09ED44
:01005E00227F
:1000B400E4FD7F051200D37DFF7F041200D31200FC
:0300C4000380FBBB
:00000001FF
